{
  "contractName": "ElectionFactory",
  "abi": [
    {
      "inputs": [],
      "stateMutability": "nonpayable",
      "type": "constructor"
    },
    {
      "anonymous": false,
      "inputs": [
        {
          "indexed": true,
          "internalType": "address",
          "name": "electionAddress",
          "type": "address"
        },
        {
          "indexed": false,
          "internalType": "string",
          "name": "name",
          "type": "string"
        },
        {
          "indexed": false,
          "internalType": "uint256",
          "name": "startTime",
          "type": "uint256"
        },
        {
          "indexed": false,
          "internalType": "uint256",
          "name": "endTime",
          "type": "uint256"
        },
        {
          "indexed": false,
          "internalType": "bool",
          "name": "isMultipleChoice",
          "type": "bool"
        },
        {
          "indexed": false,
          "internalType": "uint8",
          "name": "maxChoices",
          "type": "uint8"
        },
        {
          "indexed": false,
          "internalType": "bool",
          "name": "isCommitReveal",
          "type": "bool"
        }
      ],
      "name": "ElectionCreated",
      "type": "event"
    },
    {
      "inputs": [],
      "name": "owner",
      "outputs": [
        {
          "internalType": "address",
          "name": "",
          "type": "address"
        }
      ],
      "stateMutability": "view",
      "type": "function",
      "constant": true
    },
    {
      "inputs": [
        {
          "internalType": "string",
          "name": "name",
          "type": "string"
        },
        {
          "internalType": "string",
          "name": "description",
          "type": "string"
        },
        {
          "internalType": "uint256",
          "name": "startTime",
          "type": "uint256"
        },
        {
          "internalType": "uint256",
          "name": "endTime",
          "type": "uint256"
        },
        {
          "internalType": "string[]",
          "name": "options",
          "type": "string[]"
        },
        {
          "internalType": "bool",
          "name": "isMultipleChoice",
          "type": "bool"
        },
        {
          "internalType": "uint8",
          "name": "maxChoices",
          "type": "uint8"
        },
        {
          "internalType": "bool",
          "name": "isCommitReveal",
          "type": "bool"
        }
      ],
      "name": "createElection",
      "outputs": [
        {
          "internalType": "address",
          "name": "",
          "type": "address"
        }
      ],
      "stateMutability": "nonpayable",
      "type": "function"
    },
    {
      "inputs": [],
      "name": "getElections",
      "outputs": [
        {
          "internalType": "address[]",
          "name": "",
          "type": "address[]"
        }
      ],
      "stateMutability": "view",
      "type": "function",
      "constant": true
    },
    {
      "inputs": [],
      "name": "electionsCount",
      "outputs": [
        {
          "internalType": "uint256",
          "name": "",
          "type": "uint256"
        }
      ],
      "stateMutability": "view",
      "type": "function",
      "constant": true
    }
  ],
  "bytecode": "0x608060405234801561001057600080fd5b50336000806101000a81548173ffffffffffffffffffffffffffffffffffffffff021916908373ffffffffffffffffffffffffffffffffffffffff160217905550612c8b806100606000396000f3fe60806040523480156200001157600080fd5b5060043610620000525760003560e01c80638da5cb5b14620000575780639a74c69514620000795780639f3a7f52146200009b578063e1db7d4e14620000bd575b600080fd5b62000061620000f3565b60405162000070919062000328565b60405180910390f35b6200008362000117565b60405162000092919062000360565b60405180910390f35b620000a562000124565b604051620000b491906200044b565b60405180910390f35b620000db6004803603810190620000d591906200078d565b620001b4565b604051620000ea919062000328565b60405180910390f35b60008054906101000a900473ffffffffffffffffffffffffffffffffffffffff1681565b6000600180549050905090565b60606001805480602002602001604051908101604052809291908181526020018280548015620001aa57602002820191906000526020600020905b8160009054906101000a900473ffffffffffffffffffffffffffffffffffffffff1673ffffffffffffffffffffffffffffffffffffffff16815260200190600101908083116200015f575b5050505050905090565b600080338a8a8a8a8a8a8a8a604051620001ce90620002d5565b620001e29998979695949392919062000a80565b604051809103906000f080158015620001ff573d6000803e3d6000fd5b50905060008190506001819080600181540180825580915050600190039060005260206000200160009091909190916101000a81548173ffffffffffffffffffffffffffffffffffffffff021916908373ffffffffffffffffffffffffffffffffffffffff1602179055508073ffffffffffffffffffffffffffffffffffffffff167f65c520424f0a0b140bb75567792f0daaa35caf56b51b8caba8ba98fa2177a3088c8b8b8a8a8a604051620002bc9695949392919062000b34565b60405180910390a2809250505098975050505050505050565b6120ad8062000ba983390190565b600073ffffffffffffffffffffffffffffffffffffffff82169050919050565b60006200031082620002e3565b9050919050565b620003228162000303565b82525050565b60006020820190506200033f600083018462000317565b92915050565b6000819050919050565b6200035a8162000345565b82525050565b60006020820190506200037760008301846200034f565b92915050565b600081519050919050565b600082825260208201905092915050565b6000819050602082019050919050565b620003b48162000303565b82525050565b6000620003c88383620003a9565b60208301905092915050565b6000602082019050919050565b6000620003ee826200037d565b620003fa818562000388565b9350620004078362000399565b8060005b838110156200043e578151620004228882620003ba565b97506200042f83620003d4565b9250506001810190506200040b565b5085935050505092915050565b60006020820190508181036000830152620004678184620003e1565b905092915050565b6000604051905090565b600080fd5b600080fd5b600080fd5b600080fd5b6000601f19601f8301169050919050565b7f4e487b7100000000000000000000000000000000000000000000000000000000600052604160045260246000fd5b620004d8826200048d565b810181811067ffffffffffffffff82111715620004fa57620004f96200049e565b5b80604052505050565b60006200050f6200046f565b90506200051d8282620004cd565b919050565b600067ffffffffffffffff82111562000540576200053f6200049e565b5b6200054b826200048d565b9050602081019050919050565b82818337600083830152505050565b60006200057e620005788462000522565b62000503565b9050828152602081018484840111156200059d576200059c62000488565b5b620005aa84828562000558565b509392505050565b600082601f830112620005ca57620005c962000483565b5b8135620005dc84826020860162000567565b91505092915050565b620005f08162000345565b8114620005fc57600080fd5b50565b6000813590506200061081620005e5565b92915050565b600067ffffffffffffffff8211156200063457620006336200049e565b5b602082029050602081019050919050565b600080fd5b6000620006616200065b8462000616565b62000503565b9050808382526020820190506020840283018581111562000687576200068662000645565b5b835b81811015620006d557803567ffffffffffffffff811115620006b057620006af62000483565b5b808601620006bf8982620005b2565b8552602085019450505060208101905062000689565b5050509392505050565b600082601f830112620006f757620006f662000483565b5b8135620007098482602086016200064a565b91505092915050565b60008115159050919050565b620007298162000712565b81146200073557600080fd5b50565b60008135905062000749816200071e565b92915050565b600060ff82169050919050565b62000767816200074f565b81146200077357600080fd5b50565b60008135905062000787816200075c565b92915050565b600080600080600080600080610100898b031215620007b157620007b062000479565b5b600089013567ffffffffffffffff811115620007d257620007d16200047e565b5b620007e08b828c01620005b2565b985050602089013567ffffffffffffffff8111156200080457620008036200047e565b5b620008128b828c01620005b2565b9750506040620008258b828c01620005ff565b9650506060620008388b828c01620005ff565b955050608089013567ffffffffffffffff8111156200085c576200085b6200047e565b5b6200086a8b828c01620006df565b94505060a06200087d8b828c0162000738565b93505060c0620008908b828c0162000776565b92505060e0620008a38b828c0162000738565b9150509295985092959890939650565b600081519050919050565b600082825260208201905092915050565b60005b83811015620008ef578082015181840152602081019050620008d2565b60008484015250505050565b60006200090882620008b3565b620009148185620008be565b935062000926818560208601620008cf565b62000931816200048d565b840191505092915050565b600081519050919050565b600082825260208201905092915050565b6000819050602082019050919050565b600082825260208201905092915050565b60006200098682620008b3565b62000992818562000968565b9350620009a4818560208601620008cf565b620009af816200048d565b840191505092915050565b6000620009c8838362000979565b905092915050565b6000602082019050919050565b6000620009ea826200093c565b620009f6818562000947565b93508360208202850162000a0a8562000958565b8060005b8581101562000a4c578484038952815162000a2a8582620009ba565b945062000a3783620009d0565b925060208a0199505060018101905062000a0e565b50829750879550505050505092915050565b62000a698162000712565b82525050565b62000a7a816200074f565b82525050565b60006101208201905062000a98600083018c62000317565b818103602083015262000aac818b620008fb565b9050818103604083015262000ac2818a620008fb565b905062000ad360608301896200034f565b62000ae260808301886200034f565b81810360a083015262000af68187620009dd565b905062000b0760c083018662000a5e565b62000b1660e083018562000a6f565b62000b2661010083018462000a5e565b9a9950505050505050505050565b600060c082019050818103600083015262000b508189620008fb565b905062000b6160208301886200034f565b62000b7060408301876200034f565b62000b7f606083018662000a5e565b62000b8e608083018562000a6f565b62000b9d60a083018462000a5e565b97965050505050505056fe60806040523480156200001157600080fd5b50604051620020ad380380620020ad83398181016040528101906200003791906200091b565b60008851116200007e576040517f08c379a0000000000000000000000000000000000000000000000000000000008152600401620000759062000ab8565b60405180910390fd5b858511620000c3576040517f08c379a0000000000000000000000000000000000000000000000000000000008152600401620000ba9062000b2a565b60405180910390fd5b6002845110156200010b576040517f08c379a0000000000000000000000000000000000000000000000000000000008152600401620001029062000b9c565b60405180910390fd5b82156200014f576040517f08c379a0000000000000000000000000000000000000000000000000000000008152600401620001469062000c0e565b60405180910390fd5b60018260ff161462000198576040517f08c379a00000000000000000000000000000000000000000000000000000000081526004016200018f9062000c80565b60405180910390fd5b8015620001dc576040517f08c379a0000000000000000000000000000000000000000000000000000000008152600401620001d39062000cf2565b60405180910390fd5b33600760006101000a81548173ffffffffffffffffffffffffffffffffffffffff021916908373ffffffffffffffffffffffffffffffffffffffff16021790555088600860006101000a81548173ffffffffffffffffffffffffffffffffffffffff021916908373ffffffffffffffffffffffffffffffffffffffff16021790555087600090816200026f919062000f55565b50866001908162000281919062000f55565b50856002819055508460038190555082600460006101000a81548160ff02191690831515021790555081600460016101000a81548160ff021916908360ff16021790555080600460026101000a81548160ff021916908315150217905550835167ffffffffffffffff811115620002fd57620002fc62000605565b5b6040519080825280602002602001820160405280156200033257816020015b60608152602001906001900390816200031c5790505b50600590805190602001906200034a92919062000432565b50835167ffffffffffffffff81111562000369576200036862000605565b5b604051908082528060200260200182016040528015620003985781602001602082028036833780820191505090505b5060069080519060200190620003b092919062000492565b5060005b84518110156200042257848181518110620003d457620003d36200103c565b5b602002602001015160058281548110620003f357620003f26200103c565b5b9060005260206000200190816200040b919062000f55565b50808062000419906200109a565b915050620003b4565b50505050505050505050620010e7565b8280548282559060005260206000209081019282156200047f579160200282015b828111156200047e5782518290816200046d919062000f55565b509160200191906001019062000453565b5b5090506200048e9190620004e4565b5090565b828054828255906000526020600020908101928215620004d1579160200282015b82811115620004d0578251825591602001919060010190620004b3565b5b509050620004e091906200050c565b5090565b5b80821115620005085760008181620004fe91906200052b565b50600101620004e5565b5090565b5b80821115620005275760008160009055506001016200050d565b5090565b508054620005399062000d4e565b6000825580601f106200054d57506200056e565b601f0160209004906000526020600020908101906200056d91906200050c565b5b50565b6000604051905090565b600080fd5b600080fd5b600073ffffffffffffffffffffffffffffffffffffffff82169050919050565b6000620005b28262000585565b9050919050565b620005c481620005a5565b8114620005d057600080fd5b50565b600081519050620005e481620005b9565b92915050565b600080fd5b600080fd5b6000601f19601f8301169050919050565b7f4e487b7100000000000000000000000000000000000000000000000000000000600052604160045260246000fd5b6200063f82620005f4565b810181811067ffffffffffffffff8211171562000661576200066062000605565b5b80604052505050565b60006200067662000571565b905062000684828262000634565b919050565b600067ffffffffffffffff821115620006a757620006a662000605565b5b620006b282620005f4565b9050602081019050919050565b60005b83811015620006df578082015181840152602081019050620006c2565b60008484015250505050565b600062000702620006fc8462000689565b6200066a565b905082815260208101848484011115620007215762000720620005ef565b5b6200072e848285620006bf565b509392505050565b600082601f8301126200074e576200074d620005ea565b5b815162000760848260208601620006eb565b91505092915050565b6000819050919050565b6200077e8162000769565b81146200078a57600080fd5b50565b6000815190506200079e8162000773565b92915050565b600067ffffffffffffffff821115620007c257620007c162000605565b5b602082029050602081019050919050565b600080fd5b6000620007ef620007e984620007a4565b6200066a565b90508083825260208201905060208402830185811115620008155762000814620007d3565b5b835b818110156200086357805167ffffffffffffffff8111156200083e576200083d620005ea565b5b8086016200084d898262000736565b8552602085019450505060208101905062000817565b5050509392505050565b600082601f830112620008855762000884620005ea565b5b815162000897848260208601620007d8565b91505092915050565b60008115159050919050565b620008b781620008a0565b8114620008c357600080fd5b50565b600081519050620008d781620008ac565b92915050565b600060ff82169050919050565b620008f581620008dd565b81146200090157600080fd5b50565b6000815190506200091581620008ea565b92915050565b60008060008060008060008060006101208a8c0312156200094157620009406200057b565b5b6000620009518c828d01620005d3565b99505060208a015167ffffffffffffffff81111562000975576200097462000580565b5b620009838c828d0162000736565b98505060408a015167ffffffffffffffff811115620009a757620009a662000580565b5b620009b58c828d0162000736565b9750506060620009c88c828d016200078d565b9650506080620009db8c828d016200078d565b95505060a08a015167ffffffffffffffff811115620009ff57620009fe62000580565b5b62000a0d8c828d016200086d565b94505060c062000a208c828d01620008c6565b93505060e062000a338c828d0162000904565b92505061010062000a478c828d01620008c6565b9150509295985092959850929598565b600082825260208201905092915050565b7f4e616d6520726571756972656400000000000000000000000000000000000000600082015250565b600062000aa0600d8362000a57565b915062000aad8262000a68565b602082019050919050565b6000602082019050818103600083015262000ad38162000a91565b9050919050565b7f496e76616c69642077696e646f77000000000000000000000000000000000000600082015250565b600062000b12600e8362000a57565b915062000b1f8262000ada565b602082019050919050565b6000602082019050818103600083015262000b458162000b03565b9050919050565b7f4174206c656173742032206f7074696f6e730000000000000000000000000000600082015250565b600062000b8460128362000a57565b915062000b918262000b4c565b602082019050919050565b6000602082019050818103600083015262000bb78162000b75565b9050919050565b7f4d56503a2073696e676c652063686f696365206f6e6c79000000000000000000600082015250565b600062000bf660178362000a57565b915062000c038262000bbe565b602082019050919050565b6000602082019050818103600083015262000c298162000be7565b9050919050565b7f4d56503a206d617843686f69636573206d757374206265203100000000000000600082015250565b600062000c6860198362000a57565b915062000c758262000c30565b602082019050919050565b6000602082019050818103600083015262000c9b8162000c59565b9050919050565b7f4d56503a20636f6d6d69742d72657665616c2064697361626c65640000000000600082015250565b600062000cda601b8362000a57565b915062000ce78262000ca2565b602082019050919050565b6000602082019050818103600083015262000d0d8162000ccb565b9050919050565b600081519050919050565b7f4e487b7100000000000000000000000000000000000000000000000000000000600052602260045260246000fd5b6000600282049050600182168062000d6757607f821691505b60208210810362000d7d5762000d7c62000d1f565b5b50919050565b60008190508160005260206000209050919050565b60006020601f8301049050919050565b600082821b905092915050565b60006008830262000de77fffffffffffffffffffffffffffffffffffffffffffffffffffffffffffffffff8262000da8565b62000df3868362000da8565b95508019841693508086168417925050509392505050565b6000819050919050565b600062000e3662000e3062000e2a8462000769565b62000e0b565b62000769565b9050919050565b6000819050919050565b62000e528362000e15565b62000e6a62000e618262000e3d565b84845462000db5565b825550505050565b600090565b62000e8162000e72565b62000e8e81848462000e47565b505050565b5b8181101562000eb65762000eaa60008262000e77565b60018101905062000e94565b5050565b601f82111562000f055762000ecf8162000d83565b62000eda8462000d98565b8101602085101562000eea578190505b62000f0262000ef98562000d98565b83018262000e93565b50505b505050565b600082821c905092915050565b600062000f2a6000198460080262000f0a565b1980831691505092915050565b600062000f45838362000f17565b9150826002028217905092915050565b62000f608262000d14565b67ffffffffffffffff81111562000f7c5762000f7b62000605565b5b62000f88825462000d4e565b62000f9582828562000eba565b600060209050601f83116001811462000fcd576000841562000fb8578287015190505b62000fc4858262000f37565b86555062001034565b601f19841662000fdd8662000d83565b60005b82811015620010075784890151825560018201915060208501945060208101905062000fe0565b8683101562001027578489015162001023601f89168262000f17565b8355505b6001600288020188555050505b505050505050565b7f4e487b7100000000000000000000000000000000000000000000000000000000600052603260045260246000fd5b7f4e487b7100000000000000000000000000000000000000000000000000000000600052601160045260246000fd5b6000620010a78262000769565b91507fffffffffffffffffffffffffffffffffffffffffffffffffffffffffffffffff8203620010dc57620010db6200106b565b5b600182019050919050565b610fb680620010f76000396000f3fe608060405234801561001057600080fd5b50600436106100f55760003560e01c806347535d7b11610097578063c45a015511610066578063c45a015514610254578063cc2ee19614610272578063dd11867514610290578063ecb70fb7146102ae576100f5565b806347535d7b146101dc5780637284e416146101fa57806378e979251461021857806390125e6814610236576100f5565b806309eef43e116100d357806309eef43e146101525780633197cbb6146101825780633de02600146101a05780634717f97c146101be576100f5565b80630121b93f146100fa57806302d05d3f1461011657806306fdde0314610134575b600080fd5b610114600480360381019061010f91906108a5565b6102cc565b005b61011e6104c8565b60405161012b9190610913565b60405180910390f35b61013c6104ee565b60405161014991906109be565b60405180910390f35b61016c60048036038101906101679190610a0c565b61057c565b6040516101799190610a54565b60405180910390f35b61018a6105d2565b6040516101979190610a7e565b60405180910390f35b6101a86105d8565b6040516101b59190610a54565b60405180910390f35b6101c66105eb565b6040516101d39190610b57565b60405180910390f35b6101e461068a565b6040516101f19190610a54565b60405180910390f35b6102026106a5565b60405161020f91906109be565b60405180910390f35b610220610733565b60405161022d9190610a7e565b60405180910390f35b61023e610739565b60405161024b9190610b95565b60405180910390f35b61025c61074c565b6040516102699190610913565b60405180910390f35b61027a610772565b6040516102879190610cbc565b60405180910390f35b61029861084b565b6040516102a59190610a54565b60405180910390f35b6102b661085e565b6040516102c39190610a54565b60405180910390f35b60025442101580156102e057506003544211155b61031f576040517f08c379a000000000000000000000000000000000000000000000000000000000815260040161031690610d2a565b60405180910390fd5b600960003373ffffffffffffffffffffffffffffffffffffffff1673ffffffffffffffffffffffffffffffffffffffff16815260200190815260200160002060009054906101000a900460ff16156103ac576040517f08c379a00000000000000000000000000000000000000000000000000000000081526004016103a390610d96565b60405180910390fd5b60058054905081106103f3576040517f08c379a00000000000000000000000000000000000000000000000000000000081526004016103ea90610e02565b60405180910390fd5b6001600960003373ffffffffffffffffffffffffffffffffffffffff1673ffffffffffffffffffffffffffffffffffffffff16815260200190815260200160002060006101000a81548160ff02191690831515021790555060016006828154811061046157610460610e22565b5b90600052602060002001600082825461047a9190610e80565b92505081905550803373ffffffffffffffffffffffffffffffffffffffff167f4d99b957a2bc29a30ebd96a7be8e68fe50a3c701db28a91436490b7d53870ca460405160405180910390a350565b600860009054906101000a900473ffffffffffffffffffffffffffffffffffffffff1681565b600080546104fb90610ee3565b80601f016020809104026020016040519081016040528092919081815260200182805461052790610ee3565b80156105745780601f1061054957610100808354040283529160200191610574565b820191906000526020600020905b81548152906001019060200180831161055757829003601f168201915b505050505081565b6000600960008373ffffffffffffffffffffffffffffffffffffffff1673ffffffffffffffffffffffffffffffffffffffff16815260200190815260200160002060009054906101000a900460ff169050919050565b60035481565b600460029054906101000a900460ff1681565b60606105f561085e565b610634576040517f08c379a000000000000000000000000000000000000000000000000000000000815260040161062b90610f60565b60405180910390fd5b600680548060200260200160405190810160405280929190818152602001828054801561068057602002820191906000526020600020905b81548152602001906001019080831161066c575b5050505050905090565b600060025442101580156106a057506003544211155b905090565b600180546106b290610ee3565b80601f01602080910402602001604051908101604052809291908181526020018280546106de90610ee3565b801561072b5780601f106107005761010080835404028352916020019161072b565b820191906000526020600020905b81548152906001019060200180831161070e57829003601f168201915b505050505081565b60025481565b600460019054906101000a900460ff1681565b600760009054906101000a900473ffffffffffffffffffffffffffffffffffffffff1681565b60606005805480602002602001604051908101604052809291908181526020016000905b828210156108425783829060005260206000200180546107b590610ee3565b80601f01602080910402602001604051908101604052809291908181526020018280546107e190610ee3565b801561082e5780601f106108035761010080835404028352916020019161082e565b820191906000526020600020905b81548152906001019060200180831161081157829003601f168201915b505050505081526020019060010190610796565b50505050905090565b600460009054906101000a900460ff1681565b60006003544211905090565b600080fd5b6000819050919050565b6108828161086f565b811461088d57600080fd5b50565b60008135905061089f81610879565b92915050565b6000602082840312156108bb576108ba61086a565b5b60006108c984828501610890565b91505092915050565b600073ffffffffffffffffffffffffffffffffffffffff82169050919050565b60006108fd826108d2565b9050919050565b61090d816108f2565b82525050565b60006020820190506109286000830184610904565b92915050565b600081519050919050565b600082825260208201905092915050565b60005b8381101561096857808201518184015260208101905061094d565b60008484015250505050565b6000601f19601f8301169050919050565b60006109908261092e565b61099a8185610939565b93506109aa81856020860161094a565b6109b381610974565b840191505092915050565b600060208201905081810360008301526109d88184610985565b905092915050565b6109e9816108f2565b81146109f457600080fd5b50565b600081359050610a06816109e0565b92915050565b600060208284031215610a2257610a2161086a565b5b6000610a30848285016109f7565b91505092915050565b60008115159050919050565b610a4e81610a39565b82525050565b6000602082019050610a696000830184610a45565b92915050565b610a788161086f565b82525050565b6000602082019050610a936000830184610a6f565b92915050565b600081519050919050565b600082825260208201905092915050565b6000819050602082019050919050565b610ace8161086f565b82525050565b6000610ae08383610ac5565b60208301905092915050565b6000602082019050919050565b6000610b0482610a99565b610b0e8185610aa4565b9350610b1983610ab5565b8060005b83811015610b4a578151610b318882610ad4565b9750610b3c83610aec565b925050600181019050610b1d565b5085935050505092915050565b60006020820190508181036000830152610b718184610af9565b905092915050565b600060ff82169050919050565b610b8f81610b79565b82525050565b6000602082019050610baa6000830184610b86565b92915050565b600081519050919050565b600082825260208201905092915050565b6000819050602082019050919050565b600082825260208201905092915050565b6000610bf88261092e565b610c028185610bdc565b9350610c1281856020860161094a565b610c1b81610974565b840191505092915050565b6000610c328383610bed565b905092915050565b6000602082019050919050565b6000610c5282610bb0565b610c5c8185610bbb565b935083602082028501610c6e85610bcc565b8060005b85811015610caa5784840389528151610c8b8582610c26565b9450610c9683610c3a565b925060208a01995050600181019050610c72565b50829750879550505050505092915050565b60006020820190508181036000830152610cd68184610c47565b905092915050565b7f4f7574206f6620766f74696e672077696e646f77000000000000000000000000600082015250565b6000610d14601483610939565b9150610d1f82610cde565b602082019050919050565b60006020820190508181036000830152610d4381610d07565b9050919050565b7f416c726561647920766f74656400000000000000000000000000000000000000600082015250565b6000610d80600d83610939565b9150610d8b82610d4a565b602082019050919050565b60006020820190508181036000830152610daf81610d73565b9050919050565b7f496e646578206f7574206f662072616e67650000000000000000000000000000600082015250565b6000610dec601283610939565b9150610df782610db6565b602082019050919050565b60006020820190508181036000830152610e1b81610ddf565b9050919050565b7f4e487b7100000000000000000000000000000000000000000000000000000000600052603260045260246000fd5b7f4e487b7100000000000000000000000000000000000000000000000000000000600052601160045260246000fd5b6000610e8b8261086f565b9150610e968361086f565b9250828201905080821115610eae57610ead610e51565b5b92915050565b7f4e487b7100000000000000000000000000000000000000000000000000000000600052602260045260246000fd5b60006002820490506001821680610efb57607f821691505b602082108103610f0e57610f0d610eb4565b5b50919050565b7f526573756c747320617661696c61626c6520616674657220656e640000000000600082015250565b6000610f4a601b83610939565b9150610f5582610f14565b602082019050919050565b60006020820190508181036000830152610f7981610f3d565b905091905056fea2646970667358221220abcf08f2fd1d6659e431c7220a700848178497a71a84156846dad24dfdd8c55564736f6c63430008130033a2646970667358221220aee58a753726bc13faa91a1daaa6cfd3329752ff356d5082fd245f75167ede7164736f6c63430008130033",
  "immutableReferences": {},
  "source": "// SPDX-License-Identifier: MIT\npragma solidity ^0.8.19;\n\nimport \"./Election.sol\";\n\ncontract ElectionFactory {\n    address public owner;\n    address[] private _elections;\n\n    event ElectionCreated(\n        address indexed electionAddress,\n        string name,\n        uint256 startTime,\n        uint256 endTime,\n        bool isMultipleChoice,\n        uint8 maxChoices,\n        bool isCommitReveal\n    );\n\n    modifier onlyOwner() {\n        require(msg.sender == owner, \"Only owner\");\n        _;\n    }\n\n    constructor() {\n        owner = msg.sender;\n    }\n\n    // MVP: criar eleio e opes numa nica transao\n    function createElection(\n        string memory name,\n        string memory description,\n        uint256 startTime,\n        uint256 endTime,\n        string[] memory options,\n        bool isMultipleChoice, // deve ser false no MVP\n        uint8 maxChoices,      // deve ser 1 no MVP\n        bool isCommitReveal    // deve ser false no MVP\n    ) external returns (address) {\n        // Para desenvolvimento, pode permitir qualquer criador\n        // Em produo, restrinja com onlyOwner ou papel admin\n        Election election = new Election(\n            msg.sender,\n            name,\n            description,\n            startTime,\n            endTime,\n            options,\n            isMultipleChoice,\n            maxChoices,\n            isCommitReveal\n        );\n        address electionAddr = address(election);\n        _elections.push(electionAddr);\n\n        emit ElectionCreated(\n            electionAddr,\n            name,\n            startTime,\n            endTime,\n            isMultipleChoice,\n            maxChoices,\n            isCommitReveal\n        );\n\n        return electionAddr;\n    }\n\n    function getElections() external view returns (address[] memory) {\n        return _elections;\n    }\n\n    function electionsCount() external view returns (uint256) {\n        return _elections.length;\n    }\n}",
  "sourcePath": "/home/unicred/Documentos/tcc/evoting-dapp/voting-dapp/contracts/ElectionFactory.sol",
  "compiler": {
    "name": "solc",
    "version": "0.8.19+commit.7dd6d404.Emscripten.clang"
  },
  "schemaVersion": "3.4.16",
  "updatedAt": "2025-10-05T17:12:11.211Z",
  "networkType": "ethereum",
  "devdoc": {
    "kind": "dev",
    "methods": {},
    "version": 1
  },
  "userdoc": {
    "kind": "user",
    "methods": {},
    "version": 1
  }
}